{
  "_format": "hh-sol-artifact-1",
  "contractName": "VaYam",
  "sourceName": "contracts/VaYam.sol",
  "abi": [
    {
      "inputs": [],
      "stateMutability": "nonpayable",
      "type": "constructor"
    },
    {
      "anonymous": false,
      "inputs": [
        {
          "indexed": true,
          "internalType": "uint256",
          "name": "accountId",
          "type": "uint256"
        },
        {
          "indexed": false,
          "internalType": "bytes32",
          "name": "hash",
          "type": "bytes32"
        },
        {
          "indexed": false,
          "internalType": "string",
          "name": "title",
          "type": "string"
        },
        {
          "indexed": false,
          "internalType": "string",
          "name": "description",
          "type": "string"
        },
        {
          "indexed": false,
          "internalType": "string",
          "name": "imageUrl",
          "type": "string"
        },
        {
          "indexed": false,
          "internalType": "address",
          "name": "acc_owner",
          "type": "address"
        }
      ],
      "name": "AccountCreated",
      "type": "event"
    },
    {
      "anonymous": false,
      "inputs": [
        {
          "indexed": true,
          "internalType": "bytes32",
          "name": "jobId",
          "type": "bytes32"
        },
        {
          "indexed": false,
          "internalType": "bytes32",
          "name": "accountHash",
          "type": "bytes32"
        },
        {
          "indexed": false,
          "internalType": "string",
          "name": "title",
          "type": "string"
        },
        {
          "indexed": false,
          "internalType": "string",
          "name": "description",
          "type": "string"
        },
        {
          "indexed": false,
          "internalType": "address",
          "name": "acc_owner",
          "type": "address"
        },
        {
          "indexed": false,
          "internalType": "uint256",
          "name": "pricePerWeek",
          "type": "uint256"
        }
      ],
      "name": "JobCreated",
      "type": "event"
    },
    {
      "inputs": [
        {
          "internalType": "uint256",
          "name": "",
          "type": "uint256"
        }
      ],
      "name": "accountHashes",
      "outputs": [
        {
          "internalType": "bytes32",
          "name": "",
          "type": "bytes32"
        }
      ],
      "stateMutability": "view",
      "type": "function"
    },
    {
      "inputs": [
        {
          "internalType": "bytes32",
          "name": "accountHash",
          "type": "bytes32"
        },
        {
          "internalType": "bytes32",
          "name": "jobHash",
          "type": "bytes32"
        }
      ],
      "name": "activateJob",
      "outputs": [],
      "stateMutability": "nonpayable",
      "type": "function"
    },
    {
      "inputs": [
        {
          "internalType": "string",
          "name": "title",
          "type": "string"
        },
        {
          "internalType": "string",
          "name": "description",
          "type": "string"
        },
        {
          "internalType": "string",
          "name": "imageUrl",
          "type": "string"
        }
      ],
      "name": "createAccount",
      "outputs": [],
      "stateMutability": "payable",
      "type": "function"
    },
    {
      "inputs": [
        {
          "internalType": "bytes32",
          "name": "accountHash",
          "type": "bytes32"
        },
        {
          "internalType": "string",
          "name": "title",
          "type": "string"
        },
        {
          "internalType": "string",
          "name": "description",
          "type": "string"
        },
        {
          "internalType": "uint256",
          "name": "pricePerWeek",
          "type": "uint256"
        }
      ],
      "name": "createJob",
      "outputs": [],
      "stateMutability": "payable",
      "type": "function"
    },
    {
      "inputs": [
        {
          "internalType": "bytes32",
          "name": "hash",
          "type": "bytes32"
        }
      ],
      "name": "deleteAccount",
      "outputs": [],
      "stateMutability": "nonpayable",
      "type": "function"
    },
    {
      "inputs": [
        {
          "internalType": "bytes32",
          "name": "accountHash",
          "type": "bytes32"
        },
        {
          "internalType": "bytes32",
          "name": "jobHash",
          "type": "bytes32"
        }
      ],
      "name": "deleteJob",
      "outputs": [],
      "stateMutability": "nonpayable",
      "type": "function"
    },
    {
      "inputs": [
        {
          "internalType": "bytes32",
          "name": "jobHash",
          "type": "bytes32"
        }
      ],
      "name": "endJob",
      "outputs": [],
      "stateMutability": "payable",
      "type": "function"
    },
    {
      "inputs": [
        {
          "internalType": "bytes32",
          "name": "accountHash",
          "type": "bytes32"
        }
      ],
      "name": "fetchAllActiveJobsPerAccount",
      "outputs": [
        {
          "components": [
            {
              "internalType": "bytes32",
              "name": "jobHash",
              "type": "bytes32"
            },
            {
              "internalType": "bytes32",
              "name": "accountHash",
              "type": "bytes32"
            },
            {
              "internalType": "string",
              "name": "title",
              "type": "string"
            },
            {
              "internalType": "string",
              "name": "description",
              "type": "string"
            },
            {
              "internalType": "address",
              "name": "acc_owner",
              "type": "address"
            },
            {
              "internalType": "uint256",
              "name": "pricePerWeek",
              "type": "uint256"
            },
            {
              "internalType": "bool",
              "name": "isActive",
              "type": "bool"
            },
            {
              "internalType": "bool",
              "name": "exists",
              "type": "bool"
            },
            {
              "internalType": "address[]",
              "name": "clients",
              "type": "address[]"
            }
          ],
          "internalType": "struct VaYam.Job[]",
          "name": "",
          "type": "tuple[]"
        }
      ],
      "stateMutability": "view",
      "type": "function"
    },
    {
      "inputs": [
        {
          "internalType": "bytes32",
          "name": "accountHash",
          "type": "bytes32"
        }
      ],
      "name": "fetchAllJobsPerAccount",
      "outputs": [
        {
          "components": [
            {
              "internalType": "bytes32",
              "name": "jobHash",
              "type": "bytes32"
            },
            {
              "internalType": "bytes32",
              "name": "accountHash",
              "type": "bytes32"
            },
            {
              "internalType": "string",
              "name": "title",
              "type": "string"
            },
            {
              "internalType": "string",
              "name": "description",
              "type": "string"
            },
            {
              "internalType": "address",
              "name": "acc_owner",
              "type": "address"
            },
            {
              "internalType": "uint256",
              "name": "pricePerWeek",
              "type": "uint256"
            },
            {
              "internalType": "bool",
              "name": "isActive",
              "type": "bool"
            },
            {
              "internalType": "bool",
              "name": "exists",
              "type": "bool"
            },
            {
              "internalType": "address[]",
              "name": "clients",
              "type": "address[]"
            }
          ],
          "internalType": "struct VaYam.Job[]",
          "name": "",
          "type": "tuple[]"
        }
      ],
      "stateMutability": "view",
      "type": "function"
    },
    {
      "inputs": [],
      "name": "getAccountCount",
      "outputs": [
        {
          "internalType": "uint256",
          "name": "",
          "type": "uint256"
        }
      ],
      "stateMutability": "view",
      "type": "function"
    },
    {
      "inputs": [],
      "name": "getAccountCreationPrice",
      "outputs": [
        {
          "internalType": "uint256",
          "name": "",
          "type": "uint256"
        }
      ],
      "stateMutability": "view",
      "type": "function"
    },
    {
      "inputs": [],
      "name": "getAllAccountHashes",
      "outputs": [
        {
          "internalType": "bytes32[]",
          "name": "",
          "type": "bytes32[]"
        }
      ],
      "stateMutability": "view",
      "type": "function"
    },
    {
      "inputs": [
        {
          "internalType": "bytes32",
          "name": "jobHash",
          "type": "bytes32"
        }
      ],
      "name": "hire",
      "outputs": [],
      "stateMutability": "payable",
      "type": "function"
    },
    {
      "inputs": [
        {
          "internalType": "uint256",
          "name": "",
          "type": "uint256"
        }
      ],
      "name": "jobtHashes",
      "outputs": [
        {
          "internalType": "bytes32",
          "name": "",
          "type": "bytes32"
        }
      ],
      "stateMutability": "view",
      "type": "function"
    },
    {
      "inputs": [
        {
          "internalType": "bytes32",
          "name": "accountHash",
          "type": "bytes32"
        },
        {
          "internalType": "bytes32",
          "name": "jobHash",
          "type": "bytes32"
        }
      ],
      "name": "pauseJob",
      "outputs": [],
      "stateMutability": "nonpayable",
      "type": "function"
    }
  ],
  "bytecode": "0x60806040526608e1bc9bf0400060035565e35fa931a00060045534801561002557600080fd5b506001600055600280546001600160a01b0319163317905561225c8061004c6000396000f3fe6080604052600436106100e85760003560e01c8063a98e4e771161008a578063cca8faea11610059578063cca8faea1461023f578063e555a09a1461025f578063ebbd95241461027f578063f6b634a11461029457600080fd5b8063a98e4e77146101cd578063b6dea79f146101ec578063bc53c0c41461020c578063ca6973401461021f57600080fd5b80636ff64efd116100c65780636ff64efd14610165578063907c7ac414610185578063941d4a2c14610198578063989ac656146101ab57600080fd5b806316379f81146100ed57806331775a0f14610123578063388d3e0214610145575b600080fd5b3480156100f957600080fd5b5061010d610108366004611c8f565b6102a7565b60405161011a9190611d39565b60405180910390f35b34801561012f57600080fd5b5061014361013e366004611e30565b610666565b005b34801561015157600080fd5b50610143610160366004611e30565b6106fe565b34801561017157600080fd5b50610143610180366004611e30565b6108f8565b610143610193366004611c8f565b61098b565b6101436101a6366004611c8f565b610b72565b3480156101b757600080fd5b506101c0610d51565b60405161011a9190611e52565b3480156101d957600080fd5b506007545b60405190815260200161011a565b3480156101f857600080fd5b506101de610207366004611c8f565b610da9565b61014361021a366004611edf565b610dca565b34801561022b57600080fd5b5061010d61023a366004611c8f565b6111a1565b34801561024b57600080fd5b506101de61025a366004611c8f565b611603565b34801561026b57600080fd5b5061014361027a366004611c8f565b611613565b34801561028b57600080fd5b506003546101de565b6101436102a2366004611f79565b611719565b600081815260056020819052604090912001546060906001600160a01b03163381146103265760405162461bcd60e51b8152602060048201526024808201527f4f6e6c79206163636f756e74206f776e65722063616e207669657720616c6c206044820152636a6f627360e01b60648201526084015b60405180910390fd5b60008381526005602052604081206008015490808267ffffffffffffffff81111561035357610353611ffb565b60405190808252806020026020018201604052801561038c57816020015b610379611ac4565b8152602001906001900390816103715790505b50905060005b8381101561065c57600087815260056020526040812060080180546006929190849081106103c2576103c2612011565b9060005260206000200154815260200190815260200160002060060160019054906101000a900460ff161561064a576000878152600560205260408120600801805460069183918590811061041957610419612011565b9060005260206000200154815260200190815260200160002090508060405180610120016040529081600082015481526020016001820154815260200160028201805461046590612027565b80601f016020809104026020016040519081016040528092919081815260200182805461049190612027565b80156104de5780601f106104b3576101008083540402835291602001916104de565b820191906000526020600020905b8154815290600101906020018083116104c157829003601f168201915b505050505081526020016003820180546104f790612027565b80601f016020809104026020016040519081016040528092919081815260200182805461052390612027565b80156105705780601f1061054557610100808354040283529160200191610570565b820191906000526020600020905b81548152906001019060200180831161055357829003601f168201915b505050918352505060048201546001600160a01b03166020808301919091526005830154604080840191909152600684015460ff80821615156060860152610100909104161515608084015260078401805482518185028101850190935280835260a090940193919290919083018282801561061557602002820191906000526020600020905b81546001600160a01b031681526001909101906020018083116105f7575b50505050508152505083858151811061063057610630612011565b6020908102919091010152610646600185612078565b9350505b8061065481612090565b915050610392565b5095945050505050565b600082815260056020819052604090912001546001600160a01b03163381146106dd5760405162461bcd60e51b8152602060048201526024808201527f4f6e6c79206163636f756e74206f776e65722063616e206163746976617465206044820152636a6f627360e01b606482015260840161031d565b50600090815260066020819052604090912001805460ff1916600117905550565b600082815260056020819052604090912001546001600160a01b03163381146107745760405162461bcd60e51b815260206004820152602260248201527f4f6e6c79206163636f756e74206f776e65722063616e2064656c657465206a6f604482015261627360f01b606482015260840161031d565b6000828152600660205260408120818155600181018290559061079a6002830182611b0f565b6107a8600383016000611b0f565b6004820180546001600160a01b031916905560006005830181905560068301805461ffff191690556107de906007840190611b49565b5050600083815260056020526040812060080154905b818110156108f157600085815260056020526040902060080180548591908390811061082257610822612011565b906000526020600020015414156108df57600085815260056020526040902060080161084f6001846120ab565b8154811061085f5761085f612011565b906000526020600020015460056000878152602001908152602001600020600801828154811061089157610891612011565b9060005260206000200181905550600560008681526020019081526020016000206008018054806108c4576108c46120c2565b600190038181906000526020600020016000905590556108f1565b806108e981612090565b9150506107f4565b5050505050565b600082815260056020819052604090912001546001600160a01b031633811461096d5760405162461bcd60e51b815260206004820152602160248201527f4f6e6c79206163636f756e74206f776e65722063616e207061757365206a6f626044820152607360f81b606482015260840161031d565b50600090815260066020819052604090912001805460ff1916905550565b600260005414156109ae5760405162461bcd60e51b815260040161031d906120d8565b60026000908155818152600660208190526040909120015460ff16610a155760405162461bcd60e51b815260206004820152601a60248201527f4a6f62206d7573742062652061637469766520746f2068697265000000000000604482015260640161031d565b6004543414610a705760405162461bcd60e51b815260206004820152602160248201527f5072696365206d75737420626520657175616c20746f20686972696e672066656044820152606560f81b606482015260840161031d565b600081815260066020526040812060070154905b81811015610b37576000838152600660205260409020600701805433919083908110610ab257610ab2612011565b6000918252602090912001546001600160a01b03161415610b255760405162461bcd60e51b815260206004820152602760248201527f436c69656e74206d6179206f6e6c792068697265206f6e652074696d65207065604482015266391030903537b160c91b606482015260840161031d565b80610b2f81612090565b915050610a84565b50506000908152600660209081526040822060070180546001818101835591845291832090910180546001600160a01b031916331790559055565b60026000541415610b955760405162461bcd60e51b815260040161031d906120d8565b60026000908155818152600660208190526040909120015460ff16610bcc5760405162461bcd60e51b815260040161031d9061210f565b6000818152600660208190526040909120015460ff16610bfe5760405162461bcd60e51b815260040161031d9061210f565b600081815260066020526040812060070154905b81811015610d47576000838152600660205260409020600701805433919083908110610c4057610c40612011565b6000918252602090912001546001600160a01b03161415610d35576000838152600660205260409020600701610c776001846120ab565b81548110610c8757610c87612011565b60009182526020808320909101548583526006909152604090912060070180546001600160a01b039092169183908110610cc357610cc3612011565b600091825260208083209190910180546001600160a01b0319166001600160a01b039490941693909317909255848152600690915260409020600701805480610d0e57610d0e6120c2565b600082815260209020810160001990810180546001600160a01b0319169055019055610d47565b80610d3f81612090565b915050610c12565b5050600160005550565b60606007805480602002602001604051908101604052809291908181526020018280548015610d9f57602002820191906000526020600020905b815481526020019060010190808311610d8b575b5050505050905090565b60078181548110610db957600080fd5b600091825260209091200154905081565b60026000541415610ded5760405162461bcd60e51b815260040161031d906120d8565b60026000556003543414610e565760405162461bcd60e51b815260206004820152602a60248201527f5072696365206d75737420657175616c20746f206163636f756e74206372656160448201526974696f6e20707269636560b01b606482015260840161031d565b610e64600180546001019055565b6000610e6f60015490565b6040516bffffffffffffffffffffffff193360601b166020820152436034820152909150600090605401604051602081830303815290604052805190602001209050610ecd8160009081526005602052604090206007015460ff1690565b15610f345760405162461bcd60e51b815260206004820152603160248201527f4163636f756e74206d757374206e6f7420616c726561647920657869737420696044820152706e207468652073616d6520626c6f636b2160781b606482015260840161031d565b60405180610120016040528083815260200182815260200189898080601f016020809104026020016040519081016040528093929190818152602001838380828437600092019190915250505090825250604080516020601f8a0181900481028201810190925288815291810191908990899081908401838280828437600092019190915250505090825250604080516020601f8801819004810282018101909252868152918101919087908790819084018382808284376000920182905250938552505033602084015250604082018190526001606083015260809091019060405190808252806020026020018201604052801561103d578160200160208202803683370190505b509052600082815260056020908152604091829020835181558382015160018201559183015180516110759260028501920190611b67565b5060608201518051611091916003840191602090910190611b67565b50608082015180516110ad916004840191602090910190611b67565b5060a08201516005820180546001600160a01b0319166001600160a01b0390921691909117905560c0820151600682015560e082015160078201805460ff19169115159190911790556101008201518051611112916008840191602090910190611beb565b5050600780546001810182556000919091527fa66cc928b5edb82af9bd49922954155ab7b0942694bea4ce44661d9a8736c688018290555060405182907f64b1666b6402db16412fa77279ea33e80edc5f9618c34c662b3966a605cdf9919061118a9084908c908c908c908c908c908c903390612179565b60405180910390a250506001600055505050505050565b600081815260056020526040812060080154606091908190815b8181101561128c57600086815260056020526040812060080180546006929190849081106111eb576111eb612011565b9060005260206000200154815260200190815260200160002060060160019054906101000a900460ff16801561126757506000868152600560205260408120600801805460069291908490811061124457611244612011565b6000918252602080832090910154835282019290925260400190206006015460ff165b1561127a57611277600185612078565b93505b8061128481612090565b9150506111bb565b5060008367ffffffffffffffff8111156112a8576112a8611ffb565b6040519080825280602002602001820160405280156112e157816020015b6112ce611ac4565b8152602001906001900390816112c65790505b50905060005b8481101561065c576000878152600560205260408120600801805460069291908490811061131757611317612011565b9060005260206000200154815260200190815260200160002060060160019054906101000a900460ff16801561139357506000878152600560205260408120600801805460069291908490811061137057611370612011565b6000918252602080832090910154835282019290925260400190206006015460ff165b156115f157600087815260056020526040812060080180546006918391859081106113c0576113c0612011565b9060005260206000200154815260200190815260200160002090508060405180610120016040529081600082015481526020016001820154815260200160028201805461140c90612027565b80601f016020809104026020016040519081016040528092919081815260200182805461143890612027565b80156114855780601f1061145a57610100808354040283529160200191611485565b820191906000526020600020905b81548152906001019060200180831161146857829003601f168201915b5050505050815260200160038201805461149e90612027565b80601f01602080910402602001604051908101604052809291908181526020018280546114ca90612027565b80156115175780601f106114ec57610100808354040283529160200191611517565b820191906000526020600020905b8154815290600101906020018083116114fa57829003601f168201915b505050918352505060048201546001600160a01b03166020808301919091526005830154604080840191909152600684015460ff80821615156060860152610100909104161515608084015260078401805482518185028101850190935280835260a09094019391929091908301828280156115bc57602002820191906000526020600020905b81546001600160a01b0316815260019091019060200180831161159e575b5050505050815250508386815181106115d7576115d7612011565b60209081029190910101526115ed600186612078565b9450505b806115fb81612090565b9150506112e7565b60088181548110610db957600080fd5b600081815260056020819052604090912001546001600160a01b031633146116945760405162461bcd60e51b815260206004820152602e60248201527f4f6e6c7920746865206163636f756e74206f776e65722063616e2064656c657460448201526d32903a34329030b1b1b7bab73a1760911b606482015260840161031d565b600081815260056020526040812081815560018101829055906116ba6002830182611b0f565b6116c8600383016000611b0f565b6116d6600483016000611b0f565b6005820180546001600160a01b031916905560006006830181905560078301805460ff1916905561170b906008840190611b49565b5050611716816119f1565b50565b6002600054141561173c5760405162461bcd60e51b815260040161031d906120d8565b6002600090815586815260056020819052604090912001546001600160a01b03163381146117bb5760405162461bcd60e51b815260206004820152602660248201527f4f6e6c79206163636f756e74206f776e65722063616e20637265617465206e6560448201526577206a6f627360d01b606482015260840161031d565b6040516bffffffffffffffffffffffff193360601b16602082015243603482015260009060540160405160208183030381529060405280519060200120905060405180610120016040528082815260200189815260200188888080601f016020809104026020016040519081016040528093929190818152602001838380828437600092019190915250505090825250604080516020601f89018190048102820181019092528781529181019190889088908190840183828082843760009201829052509385525050506001600160a01b038516602080840191909152604080840188905260016060850181905260808501528051838152918201905260a09092019190509052600082815260066020908152604091829020835181558382015160018201559183015180516118f79260028501920190611b67565b5060608201518051611913916003840191602090910190611b67565b5060808201516004820180546001600160a01b0319166001600160a01b0390921691909117905560a0820151600582015560c082015160068201805460e085015161ffff1990911692151561ff001916929092176101009215158302179055820151805161198b916007840191602090910190611c25565b5050506000888152600560209081526040808320600801805460018101825590845291909220018290555181907fdea473562a98d3d925b70d0beb31a2b67d09a52fb5b9b8fbb6350d4ac87f03f99061118a908b908b908b908b908b908a908c906121d9565b60075460005b81811015611abf57826005600060078481548110611a1757611a17612011565b90600052602060002001548152602001908152602001600020600101541415611aad576007611a476001846120ab565b81548110611a5757611a57612011565b906000526020600020015460078281548110611a7557611a75612011565b6000918252602090912001556007805480611a9257611a926120c2565b60019003818190600052602060002001600090559055505050565b80611ab781612090565b9150506119f7565b505050565b604080516101208101825260008082526020820181905260609282018390528282018390526080820181905260a0820181905260c0820181905260e082015261010081019190915290565b508054611b1b90612027565b6000825580601f10611b2b575050565b601f0160209004906000526020600020908101906117169190611c7a565b50805460008255906000526020600020908101906117169190611c7a565b828054611b7390612027565b90600052602060002090601f016020900481019282611b955760008555611bdb565b82601f10611bae57805160ff1916838001178555611bdb565b82800160010185558215611bdb579182015b82811115611bdb578251825591602001919060010190611bc0565b50611be7929150611c7a565b5090565b828054828255906000526020600020908101928215611bdb5791602002820182811115611bdb578251825591602001919060010190611bc0565b828054828255906000526020600020908101928215611bdb579160200282015b82811115611bdb57825182546001600160a01b0319166001600160a01b03909116178255602090920191600190910190611c45565b5b80821115611be75760008155600101611c7b565b600060208284031215611ca157600080fd5b5035919050565b6000815180845260005b81811015611cce57602081850181015186830182015201611cb2565b81811115611ce0576000602083870101525b50601f01601f19169290920160200192915050565b600081518084526020808501945080840160005b83811015611d2e5781516001600160a01b031687529582019590820190600101611d09565b509495945050505050565b60006020808301818452808551808352604092508286019150828160051b87010184880160005b83811015611e2257603f198984030185528151610120815185528882015189860152878201518189870152611d9782870182611ca8565b91505060608083015186830382880152611db18382611ca8565b92505050608080830151611dcf828801826001600160a01b03169052565b505060a0828101519086015260c08083015115159086015260e0808301511515908601526101009182015185820392860192909252611e0e8183611cf5565b968901969450505090860190600101611d60565b509098975050505050505050565b60008060408385031215611e4357600080fd5b50508035926020909101359150565b6020808252825182820181905260009190848201906040850190845b81811015611e8a57835183529284019291840191600101611e6e565b50909695505050505050565b60008083601f840112611ea857600080fd5b50813567ffffffffffffffff811115611ec057600080fd5b602083019150836020828501011115611ed857600080fd5b9250929050565b60008060008060008060608789031215611ef857600080fd5b863567ffffffffffffffff80821115611f1057600080fd5b611f1c8a838b01611e96565b90985096506020890135915080821115611f3557600080fd5b611f418a838b01611e96565b90965094506040890135915080821115611f5a57600080fd5b50611f6789828a01611e96565b979a9699509497509295939492505050565b60008060008060008060808789031215611f9257600080fd5b86359550602087013567ffffffffffffffff80821115611fb157600080fd5b611fbd8a838b01611e96565b90975095506040890135915080821115611fd657600080fd5b50611fe389828a01611e96565b979a9699509497949695606090950135949350505050565b634e487b7160e01b600052604160045260246000fd5b634e487b7160e01b600052603260045260246000fd5b600181811c9082168061203b57607f821691505b6020821081141561205c57634e487b7160e01b600052602260045260246000fd5b50919050565b634e487b7160e01b600052601160045260246000fd5b6000821982111561208b5761208b612062565b500190565b60006000198214156120a4576120a4612062565b5060010190565b6000828210156120bd576120bd612062565b500390565b634e487b7160e01b600052603160045260246000fd5b6020808252601f908201527f5265656e7472616e637947756172643a207265656e7472616e742063616c6c00604082015260600190565b60208082526021908201527f4a6f62206d7573742062652061637469766520746f20656e6420746865206a6f6040820152603160f91b606082015260800190565b81835281816020850137506000828201602090810191909152601f909101601f19169091010190565b88815260a06020820152600061219360a08301898b612150565b82810360408401526121a681888a612150565b905082810360608401526121bb818688612150565b91505060018060a01b03831660808301529998505050505050505050565b87815260a0602082015260006121f360a08301888a612150565b8281036040840152612206818789612150565b6001600160a01b039590951660608401525050608001529594505050505056fea26469706673582212205d082419180f8543fbc69fb9adb512790870aee88ea77871c4a753e37ed5e5ff64736f6c63430008090033",
  "linkReferences": {},
  "deployedLinkReferences": {}
}