{
  "_format": "hh-sol-artifact-1",
  "contractName": "VaYemMarketplace",
  "sourceName": "contracts/JobMarketplace.sol",
  "abi": [
    {
      "inputs": [],
      "stateMutability": "nonpayable",
      "type": "constructor"
    },
    {
      "anonymous": false,
      "inputs": [
        {
          "indexed": true,
          "internalType": "uint256",
          "name": "accountId",
          "type": "uint256"
        },
        {
          "indexed": false,
          "internalType": "bytes32",
          "name": "hash",
          "type": "bytes32"
        },
        {
          "indexed": false,
          "internalType": "string",
          "name": "title",
          "type": "string"
        },
        {
          "indexed": false,
          "internalType": "string",
          "name": "description",
          "type": "string"
        },
        {
          "indexed": false,
          "internalType": "string",
          "name": "imageUrl",
          "type": "string"
        },
        {
          "indexed": false,
          "internalType": "address",
          "name": "acc_owner",
          "type": "address"
        }
      ],
      "name": "AccountCreated",
      "type": "event"
    },
    {
      "anonymous": false,
      "inputs": [
        {
          "indexed": true,
          "internalType": "uint256",
          "name": "jobId",
          "type": "uint256"
        },
        {
          "indexed": false,
          "internalType": "bytes32",
          "name": "accountHash",
          "type": "bytes32"
        },
        {
          "indexed": false,
          "internalType": "string",
          "name": "title",
          "type": "string"
        },
        {
          "indexed": false,
          "internalType": "string",
          "name": "description",
          "type": "string"
        },
        {
          "indexed": false,
          "internalType": "address",
          "name": "acc_owner",
          "type": "address"
        },
        {
          "indexed": false,
          "internalType": "uint256",
          "name": "pricePerWeek",
          "type": "uint256"
        }
      ],
      "name": "JobCreated",
      "type": "event"
    },
    {
      "inputs": [
        {
          "internalType": "uint256",
          "name": "",
          "type": "uint256"
        }
      ],
      "name": "accountHashes",
      "outputs": [
        {
          "internalType": "bytes32",
          "name": "",
          "type": "bytes32"
        }
      ],
      "stateMutability": "view",
      "type": "function"
    },
    {
      "inputs": [
        {
          "internalType": "bytes32",
          "name": "accountHash",
          "type": "bytes32"
        },
        {
          "internalType": "uint256",
          "name": "jobId",
          "type": "uint256"
        }
      ],
      "name": "activateJob",
      "outputs": [],
      "stateMutability": "nonpayable",
      "type": "function"
    },
    {
      "inputs": [
        {
          "internalType": "string",
          "name": "title",
          "type": "string"
        },
        {
          "internalType": "string",
          "name": "description",
          "type": "string"
        },
        {
          "internalType": "string",
          "name": "imageUrl",
          "type": "string"
        }
      ],
      "name": "createAccount",
      "outputs": [],
      "stateMutability": "payable",
      "type": "function"
    },
    {
      "inputs": [
        {
          "internalType": "bytes32",
          "name": "accountHash",
          "type": "bytes32"
        },
        {
          "internalType": "string",
          "name": "title",
          "type": "string"
        },
        {
          "internalType": "string",
          "name": "description",
          "type": "string"
        },
        {
          "internalType": "uint256",
          "name": "pricePerWeek",
          "type": "uint256"
        }
      ],
      "name": "createJob",
      "outputs": [],
      "stateMutability": "payable",
      "type": "function"
    },
    {
      "inputs": [
        {
          "internalType": "bytes32",
          "name": "hash",
          "type": "bytes32"
        }
      ],
      "name": "deleteAccount",
      "outputs": [],
      "stateMutability": "nonpayable",
      "type": "function"
    },
    {
      "inputs": [],
      "name": "getAccountCount",
      "outputs": [
        {
          "internalType": "uint256",
          "name": "",
          "type": "uint256"
        }
      ],
      "stateMutability": "view",
      "type": "function"
    },
    {
      "inputs": [],
      "name": "getAllAccountHashes",
      "outputs": [
        {
          "internalType": "bytes32[]",
          "name": "",
          "type": "bytes32[]"
        }
      ],
      "stateMutability": "view",
      "type": "function"
    },
    {
      "inputs": [
        {
          "internalType": "bytes32",
          "name": "accountHash",
          "type": "bytes32"
        },
        {
          "internalType": "uint256",
          "name": "jobId",
          "type": "uint256"
        }
      ],
      "name": "pauseJob",
      "outputs": [],
      "stateMutability": "nonpayable",
      "type": "function"
    }
  ],
  "bytecode": "0x60806040526608e1bc9bf0400060035565e35fa931a00060045534801561002557600080fd5b506001600055600280546001600160a01b03191633179055610e2d8061004c6000396000f3fe60806040526004361061007b5760003560e01c8063b6dea79f1161004e578063b6dea79f1461010c578063bc53c0c41461012c578063e555a09a1461013f578063f6b634a11461015f57600080fd5b80631ffe677a146100805780637ca5cb24146100a2578063989ac656146100c2578063a98e4e77146100ed575b600080fd5b34801561008c57600080fd5b506100a061009b366004610a76565b610172565b005b3480156100ae57600080fd5b506100a06100bd366004610a76565b6101f3565b3480156100ce57600080fd5b506100d7610268565b6040516100e49190610a98565b60405180910390f35b3480156100f957600080fd5b506006545b6040519081526020016100e4565b34801561011857600080fd5b506100fe610127366004610adc565b6102c0565b6100a061013a366004610b3e565b6102e1565b34801561014b57600080fd5b506100a061015a366004610adc565b6106a1565b6100a061016d366004610bd8565b610795565b600082815260056020819052604090912001546001600160a01b03163381146101ee5760405162461bcd60e51b8152602060048201526024808201527f4f6e6c79206163636f756e74206f776e65722063616e206163746976617465206044820152636a6f627360e01b60648201526084015b60405180910390fd5b505050565b600082815260056020819052604090912001546001600160a01b03163381146101ee5760405162461bcd60e51b815260206004820152602160248201527f4f6e6c79206163636f756e74206f776e65722063616e207061757365206a6f626044820152607360f81b60648201526084016101e5565b606060068054806020026020016040519081016040528092919081815260200182805480156102b657602002820191906000526020600020905b8154815260200190600101908083116102a2575b5050505050905090565b600681815481106102d057600080fd5b600091825260209091200154905081565b600260005414156103345760405162461bcd60e51b815260206004820152601f60248201527f5265656e7472616e637947756172643a207265656e7472616e742063616c6c0060448201526064016101e5565b6002600055600354341461039d5760405162461bcd60e51b815260206004820152602a60248201527f5072696365206d75737420657175616c20746f206163636f756e74206372656160448201526974696f6e20707269636560b01b60648201526084016101e5565b6103ab600180546001019055565b60006103b660015490565b6040516bffffffffffffffffffffffff193360601b1660208201524360348201529091506000906054016040516020818303038152906040528051906020012090506104148160009081526005602052604090206007015460ff1690565b1561047b5760405162461bcd60e51b815260206004820152603160248201527f4163636f756e74206d757374206e6f7420616c726561647920657869737420696044820152706e207468652073616d6520626c6f636b2160781b60648201526084016101e5565b60405180610100016040528083815260200182815260200189898080601f016020809104026020016040519081016040528093929190818152602001838380828437600092019190915250505090825250604080516020601f8a0181900481028201810190925288815291810191908990899081908401838280828437600092019190915250505090825250604080516020601f880181900481028201810190925286815291810191908790879081908401838280828437600092018290525093855250503360208085019190915260408085018490526001606090950185905286845260058252928390208551815585820151948101949094559184015180516105909360028601935091909101906109a7565b50606082015180516105ac9160038401916020909101906109a7565b50608082015180516105c89160048401916020909101906109a7565b5060a08201516005820180546001600160a01b0319166001600160a01b0390921691909117905560c082015160068083019190915560e0909201516007909101805460ff191691151591909117905580546001810182556000919091527ff652222313e28459528d920b65115c16c04f3efc82aaedc97be59f3f377c0d3f0181905560405182907f64b1666b6402db16412fa77279ea33e80edc5f9618c34c662b3966a605cdf9919061068a9084908c908c908c908c908c908c903390610c83565b60405180910390a250506001600055505050505050565b600081815260056020819052604090912001546001600160a01b031633146107225760405162461bcd60e51b815260206004820152602e60248201527f4f6e6c7920746865206163636f756e74206f776e65722063616e2064656c657460448201526d32903a34329030b1b1b7bab73a1760911b60648201526084016101e5565b600081815260056020526040812081815560018101829055906107486002830182610a2b565b610756600383016000610a2b565b610764600483016000610a2b565b506005810180546001600160a01b031916905560006006820155600701805460ff19169055610792816108d9565b50565b600260005414156107e85760405162461bcd60e51b815260206004820152601f60248201527f5265656e7472616e637947756172643a207265656e7472616e742063616c6c0060448201526064016101e5565b6002600090815586815260056020819052604090912001546001600160a01b03163381146108675760405162461bcd60e51b815260206004820152602660248201527f4f6e6c79206163636f756e74206f776e65722063616e20637265617465206e6560448201526577206a6f627360d01b60648201526084016101e5565b600087815260056020526040812060060154610884906001610cf9565b600089815260056020526040908190206006018290555190915081907fff290f81f53ee8790f8a1be492b70b80fe532802eecdc54c4d56f890869553a39061068a908b908b908b908b908b908a908c90610d11565b60065460005b818110156101ee578260056000600684815481106108ff576108ff610d5e565b9060005260206000200154815260200190815260200160002060010154141561099557600661092f600184610d74565b8154811061093f5761093f610d5e565b90600052602060002001546006828154811061095d5761095d610d5e565b600091825260209091200155600680548061097a5761097a610d8b565b60019003818190600052602060002001600090559055505050565b8061099f81610da1565b9150506108df565b8280546109b390610dbc565b90600052602060002090601f0160209004810192826109d55760008555610a1b565b82601f106109ee57805160ff1916838001178555610a1b565b82800160010185558215610a1b579182015b82811115610a1b578251825591602001919060010190610a00565b50610a27929150610a61565b5090565b508054610a3790610dbc565b6000825580601f10610a47575050565b601f01602090049060005260206000209081019061079291905b5b80821115610a275760008155600101610a62565b60008060408385031215610a8957600080fd5b50508035926020909101359150565b6020808252825182820181905260009190848201906040850190845b81811015610ad057835183529284019291840191600101610ab4565b50909695505050505050565b600060208284031215610aee57600080fd5b5035919050565b60008083601f840112610b0757600080fd5b50813567ffffffffffffffff811115610b1f57600080fd5b602083019150836020828501011115610b3757600080fd5b9250929050565b60008060008060008060608789031215610b5757600080fd5b863567ffffffffffffffff80821115610b6f57600080fd5b610b7b8a838b01610af5565b90985096506020890135915080821115610b9457600080fd5b610ba08a838b01610af5565b90965094506040890135915080821115610bb957600080fd5b50610bc689828a01610af5565b979a9699509497509295939492505050565b60008060008060008060808789031215610bf157600080fd5b86359550602087013567ffffffffffffffff80821115610c1057600080fd5b610c1c8a838b01610af5565b90975095506040890135915080821115610c3557600080fd5b50610c4289828a01610af5565b979a9699509497949695606090950135949350505050565b81835281816020850137506000828201602090810191909152601f909101601f19169091010190565b88815260a060208201526000610c9d60a08301898b610c5a565b8281036040840152610cb081888a610c5a565b90508281036060840152610cc5818688610c5a565b91505060018060a01b03831660808301529998505050505050505050565b634e487b7160e01b600052601160045260246000fd5b60008219821115610d0c57610d0c610ce3565b500190565b87815260a060208201526000610d2b60a08301888a610c5a565b8281036040840152610d3e818789610c5a565b6001600160a01b0395909516606084015250506080015295945050505050565b634e487b7160e01b600052603260045260246000fd5b600082821015610d8657610d86610ce3565b500390565b634e487b7160e01b600052603160045260246000fd5b6000600019821415610db557610db5610ce3565b5060010190565b600181811c90821680610dd057607f821691505b60208210811415610df157634e487b7160e01b600052602260045260246000fd5b5091905056fea2646970667358221220c21f311c3f27b09c5b2c6542f423480f67bc76fa316b672336d3eaf84e9ad11664736f6c63430008090033",
  "linkReferences": {},
  "deployedLinkReferences": {}
}