{
  "_format": "hh-sol-artifact-1",
  "contractName": "VaYam",
  "sourceName": "contracts/VaYam.sol",
  "abi": [
    {
      "inputs": [],
      "stateMutability": "nonpayable",
      "type": "constructor"
    },
    {
      "anonymous": false,
      "inputs": [
        {
          "indexed": true,
          "internalType": "uint256",
          "name": "accountId",
          "type": "uint256"
        },
        {
          "indexed": false,
          "internalType": "bytes32",
          "name": "hash",
          "type": "bytes32"
        },
        {
          "indexed": false,
          "internalType": "string",
          "name": "title",
          "type": "string"
        },
        {
          "indexed": false,
          "internalType": "string",
          "name": "description",
          "type": "string"
        },
        {
          "indexed": false,
          "internalType": "string",
          "name": "imageUrl",
          "type": "string"
        },
        {
          "indexed": false,
          "internalType": "address",
          "name": "acc_owner",
          "type": "address"
        }
      ],
      "name": "AccountCreated",
      "type": "event"
    },
    {
      "anonymous": false,
      "inputs": [
        {
          "indexed": true,
          "internalType": "bytes32",
          "name": "jobId",
          "type": "bytes32"
        },
        {
          "indexed": false,
          "internalType": "bytes32",
          "name": "accountHash",
          "type": "bytes32"
        },
        {
          "indexed": false,
          "internalType": "string",
          "name": "title",
          "type": "string"
        },
        {
          "indexed": false,
          "internalType": "string",
          "name": "description",
          "type": "string"
        },
        {
          "indexed": false,
          "internalType": "address",
          "name": "acc_owner",
          "type": "address"
        },
        {
          "indexed": false,
          "internalType": "uint256",
          "name": "pricePerWeek",
          "type": "uint256"
        }
      ],
      "name": "JobCreated",
      "type": "event"
    },
    {
      "inputs": [
        {
          "internalType": "uint256",
          "name": "",
          "type": "uint256"
        }
      ],
      "name": "accountHashes",
      "outputs": [
        {
          "internalType": "bytes32",
          "name": "",
          "type": "bytes32"
        }
      ],
      "stateMutability": "view",
      "type": "function"
    },
    {
      "inputs": [
        {
          "internalType": "bytes32",
          "name": "accountHash",
          "type": "bytes32"
        },
        {
          "internalType": "bytes32",
          "name": "jobHash",
          "type": "bytes32"
        }
      ],
      "name": "activateJob",
      "outputs": [],
      "stateMutability": "nonpayable",
      "type": "function"
    },
    {
      "inputs": [
        {
          "internalType": "string",
          "name": "title",
          "type": "string"
        },
        {
          "internalType": "string",
          "name": "description",
          "type": "string"
        },
        {
          "internalType": "string",
          "name": "imageUrl",
          "type": "string"
        }
      ],
      "name": "createAccount",
      "outputs": [],
      "stateMutability": "payable",
      "type": "function"
    },
    {
      "inputs": [
        {
          "internalType": "bytes32",
          "name": "accountHash",
          "type": "bytes32"
        },
        {
          "internalType": "string",
          "name": "title",
          "type": "string"
        },
        {
          "internalType": "string",
          "name": "description",
          "type": "string"
        },
        {
          "internalType": "uint256",
          "name": "pricePerWeek",
          "type": "uint256"
        }
      ],
      "name": "createJob",
      "outputs": [],
      "stateMutability": "payable",
      "type": "function"
    },
    {
      "inputs": [
        {
          "internalType": "bytes32",
          "name": "hash",
          "type": "bytes32"
        }
      ],
      "name": "deleteAccount",
      "outputs": [],
      "stateMutability": "nonpayable",
      "type": "function"
    },
    {
      "inputs": [
        {
          "internalType": "bytes32",
          "name": "accountHash",
          "type": "bytes32"
        },
        {
          "internalType": "bytes32",
          "name": "jobHash",
          "type": "bytes32"
        }
      ],
      "name": "deleteJob",
      "outputs": [],
      "stateMutability": "nonpayable",
      "type": "function"
    },
    {
      "inputs": [
        {
          "internalType": "bytes32",
          "name": "jobHash",
          "type": "bytes32"
        }
      ],
      "name": "endJob",
      "outputs": [],
      "stateMutability": "payable",
      "type": "function"
    },
    {
      "inputs": [
        {
          "internalType": "bytes32",
          "name": "accountHash",
          "type": "bytes32"
        }
      ],
      "name": "fetchAllActiveJobsPerAccount",
      "outputs": [
        {
          "components": [
            {
              "internalType": "bytes32",
              "name": "jobHash",
              "type": "bytes32"
            },
            {
              "internalType": "bytes32",
              "name": "accountHash",
              "type": "bytes32"
            },
            {
              "internalType": "string",
              "name": "title",
              "type": "string"
            },
            {
              "internalType": "string",
              "name": "description",
              "type": "string"
            },
            {
              "internalType": "address",
              "name": "acc_owner",
              "type": "address"
            },
            {
              "internalType": "uint256",
              "name": "pricePerWeek",
              "type": "uint256"
            },
            {
              "internalType": "bool",
              "name": "isActive",
              "type": "bool"
            },
            {
              "internalType": "bool",
              "name": "exists",
              "type": "bool"
            },
            {
              "internalType": "address[]",
              "name": "clients",
              "type": "address[]"
            }
          ],
          "internalType": "struct VaYam.Job[]",
          "name": "",
          "type": "tuple[]"
        }
      ],
      "stateMutability": "view",
      "type": "function"
    },
    {
      "inputs": [
        {
          "internalType": "bytes32",
          "name": "accountHash",
          "type": "bytes32"
        }
      ],
      "name": "fetchAllJobsPerAccount",
      "outputs": [
        {
          "components": [
            {
              "internalType": "bytes32",
              "name": "jobHash",
              "type": "bytes32"
            },
            {
              "internalType": "bytes32",
              "name": "accountHash",
              "type": "bytes32"
            },
            {
              "internalType": "string",
              "name": "title",
              "type": "string"
            },
            {
              "internalType": "string",
              "name": "description",
              "type": "string"
            },
            {
              "internalType": "address",
              "name": "acc_owner",
              "type": "address"
            },
            {
              "internalType": "uint256",
              "name": "pricePerWeek",
              "type": "uint256"
            },
            {
              "internalType": "bool",
              "name": "isActive",
              "type": "bool"
            },
            {
              "internalType": "bool",
              "name": "exists",
              "type": "bool"
            },
            {
              "internalType": "address[]",
              "name": "clients",
              "type": "address[]"
            }
          ],
          "internalType": "struct VaYam.Job[]",
          "name": "",
          "type": "tuple[]"
        }
      ],
      "stateMutability": "view",
      "type": "function"
    },
    {
      "inputs": [],
      "name": "getAccountCount",
      "outputs": [
        {
          "internalType": "uint256",
          "name": "",
          "type": "uint256"
        }
      ],
      "stateMutability": "view",
      "type": "function"
    },
    {
      "inputs": [],
      "name": "getAccountCreationPrice",
      "outputs": [
        {
          "internalType": "uint256",
          "name": "",
          "type": "uint256"
        }
      ],
      "stateMutability": "view",
      "type": "function"
    },
    {
      "inputs": [],
      "name": "getAllAccountHashes",
      "outputs": [
        {
          "internalType": "bytes32[]",
          "name": "",
          "type": "bytes32[]"
        }
      ],
      "stateMutability": "view",
      "type": "function"
    },
    {
      "inputs": [
        {
          "internalType": "bytes32",
          "name": "jobHash",
          "type": "bytes32"
        }
      ],
      "name": "hire",
      "outputs": [],
      "stateMutability": "payable",
      "type": "function"
    },
    {
      "inputs": [
        {
          "internalType": "bytes32",
          "name": "accountHash",
          "type": "bytes32"
        },
        {
          "internalType": "bytes32",
          "name": "jobHash",
          "type": "bytes32"
        }
      ],
      "name": "pauseJob",
      "outputs": [],
      "stateMutability": "nonpayable",
      "type": "function"
    }
  ],
  "bytecode": "0x60806040526608e1bc9bf0400060035565e35fa931a00060045534801561002557600080fd5b506001600055600280546001600160a01b031916331790556122218061004c6000396000f3fe6080604052600436106100dd5760003560e01c8063a98e4e771161007f578063ca69734011610059578063ca69734014610214578063e555a09a14610234578063ebbd952414610254578063f6b634a11461026957600080fd5b8063a98e4e77146101c2578063b6dea79f146101e1578063bc53c0c41461020157600080fd5b80636ff64efd116100bb5780636ff64efd1461015a578063907c7ac41461017a578063941d4a2c1461018d578063989ac656146101a057600080fd5b806316379f81146100e257806331775a0f14610118578063388d3e021461013a575b600080fd5b3480156100ee57600080fd5b506101026100fd366004611c54565b61027c565b60405161010f9190611cfe565b60405180910390f35b34801561012457600080fd5b50610138610133366004611df5565b61063b565b005b34801561014657600080fd5b50610138610155366004611df5565b6106d3565b34801561016657600080fd5b50610138610175366004611df5565b6108cd565b610138610188366004611c54565b610960565b61013861019b366004611c54565b610b47565b3480156101ac57600080fd5b506101b5610d26565b60405161010f9190611e17565b3480156101ce57600080fd5b506007545b60405190815260200161010f565b3480156101ed57600080fd5b506101d36101fc366004611c54565b610d7e565b61013861020f366004611ea4565b610d9f565b34801561022057600080fd5b5061010261022f366004611c54565b611176565b34801561024057600080fd5b5061013861024f366004611c54565b6115d8565b34801561026057600080fd5b506003546101d3565b610138610277366004611f3e565b6116de565b600081815260056020819052604090912001546060906001600160a01b03163381146102fb5760405162461bcd60e51b8152602060048201526024808201527f4f6e6c79206163636f756e74206f776e65722063616e207669657720616c6c206044820152636a6f627360e01b60648201526084015b60405180910390fd5b60008381526005602052604081206008015490808267ffffffffffffffff81111561032857610328611fc0565b60405190808252806020026020018201604052801561036157816020015b61034e611a89565b8152602001906001900390816103465790505b50905060005b83811015610631576000878152600560205260408120600801805460069291908490811061039757610397611fd6565b9060005260206000200154815260200190815260200160002060060160019054906101000a900460ff161561061f57600087815260056020526040812060080180546006918391859081106103ee576103ee611fd6565b9060005260206000200154815260200190815260200160002090508060405180610120016040529081600082015481526020016001820154815260200160028201805461043a90611fec565b80601f016020809104026020016040519081016040528092919081815260200182805461046690611fec565b80156104b35780601f10610488576101008083540402835291602001916104b3565b820191906000526020600020905b81548152906001019060200180831161049657829003601f168201915b505050505081526020016003820180546104cc90611fec565b80601f01602080910402602001604051908101604052809291908181526020018280546104f890611fec565b80156105455780601f1061051a57610100808354040283529160200191610545565b820191906000526020600020905b81548152906001019060200180831161052857829003601f168201915b505050918352505060048201546001600160a01b03166020808301919091526005830154604080840191909152600684015460ff80821615156060860152610100909104161515608084015260078401805482518185028101850190935280835260a09094019391929091908301828280156105ea57602002820191906000526020600020905b81546001600160a01b031681526001909101906020018083116105cc575b50505050508152505083858151811061060557610605611fd6565b602090810291909101015261061b60018561203d565b9350505b8061062981612055565b915050610367565b5095945050505050565b600082815260056020819052604090912001546001600160a01b03163381146106b25760405162461bcd60e51b8152602060048201526024808201527f4f6e6c79206163636f756e74206f776e65722063616e206163746976617465206044820152636a6f627360e01b60648201526084016102f2565b50600090815260066020819052604090912001805460ff1916600117905550565b600082815260056020819052604090912001546001600160a01b03163381146107495760405162461bcd60e51b815260206004820152602260248201527f4f6e6c79206163636f756e74206f776e65722063616e2064656c657465206a6f604482015261627360f01b60648201526084016102f2565b6000828152600660205260408120818155600181018290559061076f6002830182611ad4565b61077d600383016000611ad4565b6004820180546001600160a01b031916905560006005830181905560068301805461ffff191690556107b3906007840190611b0e565b5050600083815260056020526040812060080154905b818110156108c65760008581526005602052604090206008018054859190839081106107f7576107f7611fd6565b906000526020600020015414156108b4576000858152600560205260409020600801610824600184612070565b8154811061083457610834611fd6565b906000526020600020015460056000878152602001908152602001600020600801828154811061086657610866611fd6565b90600052602060002001819055506005600086815260200190815260200160002060080180548061089957610899612087565b600190038181906000526020600020016000905590556108c6565b806108be81612055565b9150506107c9565b5050505050565b600082815260056020819052604090912001546001600160a01b03163381146109425760405162461bcd60e51b815260206004820152602160248201527f4f6e6c79206163636f756e74206f776e65722063616e207061757365206a6f626044820152607360f81b60648201526084016102f2565b50600090815260066020819052604090912001805460ff1916905550565b600260005414156109835760405162461bcd60e51b81526004016102f29061209d565b60026000908155818152600660208190526040909120015460ff166109ea5760405162461bcd60e51b815260206004820152601a60248201527f4a6f62206d7573742062652061637469766520746f206869726500000000000060448201526064016102f2565b6004543414610a455760405162461bcd60e51b815260206004820152602160248201527f5072696365206d75737420626520657175616c20746f20686972696e672066656044820152606560f81b60648201526084016102f2565b600081815260066020526040812060070154905b81811015610b0c576000838152600660205260409020600701805433919083908110610a8757610a87611fd6565b6000918252602090912001546001600160a01b03161415610afa5760405162461bcd60e51b815260206004820152602760248201527f436c69656e74206d6179206f6e6c792068697265206f6e652074696d65207065604482015266391030903537b160c91b60648201526084016102f2565b80610b0481612055565b915050610a59565b50506000908152600660209081526040822060070180546001818101835591845291832090910180546001600160a01b031916331790559055565b60026000541415610b6a5760405162461bcd60e51b81526004016102f29061209d565b60026000908155818152600660208190526040909120015460ff16610ba15760405162461bcd60e51b81526004016102f2906120d4565b6000818152600660208190526040909120015460ff16610bd35760405162461bcd60e51b81526004016102f2906120d4565b600081815260066020526040812060070154905b81811015610d1c576000838152600660205260409020600701805433919083908110610c1557610c15611fd6565b6000918252602090912001546001600160a01b03161415610d0a576000838152600660205260409020600701610c4c600184612070565b81548110610c5c57610c5c611fd6565b60009182526020808320909101548583526006909152604090912060070180546001600160a01b039092169183908110610c9857610c98611fd6565b600091825260208083209190910180546001600160a01b0319166001600160a01b039490941693909317909255848152600690915260409020600701805480610ce357610ce3612087565b600082815260209020810160001990810180546001600160a01b0319169055019055610d1c565b80610d1481612055565b915050610be7565b5050600160005550565b60606007805480602002602001604051908101604052809291908181526020018280548015610d7457602002820191906000526020600020905b815481526020019060010190808311610d60575b5050505050905090565b60078181548110610d8e57600080fd5b600091825260209091200154905081565b60026000541415610dc25760405162461bcd60e51b81526004016102f29061209d565b60026000556003543414610e2b5760405162461bcd60e51b815260206004820152602a60248201527f5072696365206d75737420657175616c20746f206163636f756e74206372656160448201526974696f6e20707269636560b01b60648201526084016102f2565b610e39600180546001019055565b6000610e4460015490565b6040516bffffffffffffffffffffffff193360601b166020820152436034820152909150600090605401604051602081830303815290604052805190602001209050610ea28160009081526005602052604090206007015460ff1690565b15610f095760405162461bcd60e51b815260206004820152603160248201527f4163636f756e74206d757374206e6f7420616c726561647920657869737420696044820152706e207468652073616d6520626c6f636b2160781b60648201526084016102f2565b60405180610120016040528083815260200182815260200189898080601f016020809104026020016040519081016040528093929190818152602001838380828437600092019190915250505090825250604080516020601f8a0181900481028201810190925288815291810191908990899081908401838280828437600092019190915250505090825250604080516020601f88018190048102820181019092528681529181019190879087908190840183828082843760009201829052509385525050336020840152506040820181905260016060830152608090910190604051908082528060200260200182016040528015611012578160200160208202803683370190505b5090526000828152600560209081526040918290208351815583820151600182015591830151805161104a9260028501920190611b2c565b5060608201518051611066916003840191602090910190611b2c565b5060808201518051611082916004840191602090910190611b2c565b5060a08201516005820180546001600160a01b0319166001600160a01b0390921691909117905560c0820151600682015560e082015160078201805460ff191691151591909117905561010082015180516110e7916008840191602090910190611bb0565b5050600780546001810182556000919091527fa66cc928b5edb82af9bd49922954155ab7b0942694bea4ce44661d9a8736c688018290555060405182907f64b1666b6402db16412fa77279ea33e80edc5f9618c34c662b3966a605cdf9919061115f9084908c908c908c908c908c908c90339061213e565b60405180910390a250506001600055505050505050565b600081815260056020526040812060080154606091908190815b8181101561126157600086815260056020526040812060080180546006929190849081106111c0576111c0611fd6565b9060005260206000200154815260200190815260200160002060060160019054906101000a900460ff16801561123c57506000868152600560205260408120600801805460069291908490811061121957611219611fd6565b6000918252602080832090910154835282019290925260400190206006015460ff165b1561124f5761124c60018561203d565b93505b8061125981612055565b915050611190565b5060008367ffffffffffffffff81111561127d5761127d611fc0565b6040519080825280602002602001820160405280156112b657816020015b6112a3611a89565b81526020019060019003908161129b5790505b50905060005b8481101561063157600087815260056020526040812060080180546006929190849081106112ec576112ec611fd6565b9060005260206000200154815260200190815260200160002060060160019054906101000a900460ff16801561136857506000878152600560205260408120600801805460069291908490811061134557611345611fd6565b6000918252602080832090910154835282019290925260400190206006015460ff165b156115c6576000878152600560205260408120600801805460069183918590811061139557611395611fd6565b906000526020600020015481526020019081526020016000209050806040518061012001604052908160008201548152602001600182015481526020016002820180546113e190611fec565b80601f016020809104026020016040519081016040528092919081815260200182805461140d90611fec565b801561145a5780601f1061142f5761010080835404028352916020019161145a565b820191906000526020600020905b81548152906001019060200180831161143d57829003601f168201915b5050505050815260200160038201805461147390611fec565b80601f016020809104026020016040519081016040528092919081815260200182805461149f90611fec565b80156114ec5780601f106114c1576101008083540402835291602001916114ec565b820191906000526020600020905b8154815290600101906020018083116114cf57829003601f168201915b505050918352505060048201546001600160a01b03166020808301919091526005830154604080840191909152600684015460ff80821615156060860152610100909104161515608084015260078401805482518185028101850190935280835260a090940193919290919083018282801561159157602002820191906000526020600020905b81546001600160a01b03168152600190910190602001808311611573575b5050505050815250508386815181106115ac576115ac611fd6565b60209081029190910101526115c260018661203d565b9450505b806115d081612055565b9150506112bc565b600081815260056020819052604090912001546001600160a01b031633146116595760405162461bcd60e51b815260206004820152602e60248201527f4f6e6c7920746865206163636f756e74206f776e65722063616e2064656c657460448201526d32903a34329030b1b1b7bab73a1760911b60648201526084016102f2565b6000818152600560205260408120818155600181018290559061167f6002830182611ad4565b61168d600383016000611ad4565b61169b600483016000611ad4565b6005820180546001600160a01b031916905560006006830181905560078301805460ff191690556116d0906008840190611b0e565b50506116db816119b6565b50565b600260005414156117015760405162461bcd60e51b81526004016102f29061209d565b6002600090815586815260056020819052604090912001546001600160a01b03163381146117805760405162461bcd60e51b815260206004820152602660248201527f4f6e6c79206163636f756e74206f776e65722063616e20637265617465206e6560448201526577206a6f627360d01b60648201526084016102f2565b6040516bffffffffffffffffffffffff193360601b16602082015243603482015260009060540160405160208183030381529060405280519060200120905060405180610120016040528082815260200189815260200188888080601f016020809104026020016040519081016040528093929190818152602001838380828437600092019190915250505090825250604080516020601f89018190048102820181019092528781529181019190889088908190840183828082843760009201829052509385525050506001600160a01b038516602080840191909152604080840188905260016060850181905260808501528051838152918201905260a09092019190509052600082815260066020908152604091829020835181558382015160018201559183015180516118bc9260028501920190611b2c565b50606082015180516118d8916003840191602090910190611b2c565b5060808201516004820180546001600160a01b0319166001600160a01b0390921691909117905560a0820151600582015560c082015160068201805460e085015161ffff1990911692151561ff0019169290921761010092151583021790558201518051611950916007840191602090910190611bea565b5050506000888152600560209081526040808320600801805460018101825590845291909220018290555181907fdea473562a98d3d925b70d0beb31a2b67d09a52fb5b9b8fbb6350d4ac87f03f99061115f908b908b908b908b908b908a908c9061219e565b60075460005b81811015611a84578260056000600784815481106119dc576119dc611fd6565b90600052602060002001548152602001908152602001600020600101541415611a72576007611a0c600184612070565b81548110611a1c57611a1c611fd6565b906000526020600020015460078281548110611a3a57611a3a611fd6565b6000918252602090912001556007805480611a5757611a57612087565b60019003818190600052602060002001600090559055505050565b80611a7c81612055565b9150506119bc565b505050565b604080516101208101825260008082526020820181905260609282018390528282018390526080820181905260a0820181905260c0820181905260e082015261010081019190915290565b508054611ae090611fec565b6000825580601f10611af0575050565b601f0160209004906000526020600020908101906116db9190611c3f565b50805460008255906000526020600020908101906116db9190611c3f565b828054611b3890611fec565b90600052602060002090601f016020900481019282611b5a5760008555611ba0565b82601f10611b7357805160ff1916838001178555611ba0565b82800160010185558215611ba0579182015b82811115611ba0578251825591602001919060010190611b85565b50611bac929150611c3f565b5090565b828054828255906000526020600020908101928215611ba05791602002820182811115611ba0578251825591602001919060010190611b85565b828054828255906000526020600020908101928215611ba0579160200282015b82811115611ba057825182546001600160a01b0319166001600160a01b03909116178255602090920191600190910190611c0a565b5b80821115611bac5760008155600101611c40565b600060208284031215611c6657600080fd5b5035919050565b6000815180845260005b81811015611c9357602081850181015186830182015201611c77565b81811115611ca5576000602083870101525b50601f01601f19169290920160200192915050565b600081518084526020808501945080840160005b83811015611cf35781516001600160a01b031687529582019590820190600101611cce565b509495945050505050565b60006020808301818452808551808352604092508286019150828160051b87010184880160005b83811015611de757603f198984030185528151610120815185528882015189860152878201518189870152611d5c82870182611c6d565b91505060608083015186830382880152611d768382611c6d565b92505050608080830151611d94828801826001600160a01b03169052565b505060a0828101519086015260c08083015115159086015260e0808301511515908601526101009182015185820392860192909252611dd38183611cba565b968901969450505090860190600101611d25565b509098975050505050505050565b60008060408385031215611e0857600080fd5b50508035926020909101359150565b6020808252825182820181905260009190848201906040850190845b81811015611e4f57835183529284019291840191600101611e33565b50909695505050505050565b60008083601f840112611e6d57600080fd5b50813567ffffffffffffffff811115611e8557600080fd5b602083019150836020828501011115611e9d57600080fd5b9250929050565b60008060008060008060608789031215611ebd57600080fd5b863567ffffffffffffffff80821115611ed557600080fd5b611ee18a838b01611e5b565b90985096506020890135915080821115611efa57600080fd5b611f068a838b01611e5b565b90965094506040890135915080821115611f1f57600080fd5b50611f2c89828a01611e5b565b979a9699509497509295939492505050565b60008060008060008060808789031215611f5757600080fd5b86359550602087013567ffffffffffffffff80821115611f7657600080fd5b611f828a838b01611e5b565b90975095506040890135915080821115611f9b57600080fd5b50611fa889828a01611e5b565b979a9699509497949695606090950135949350505050565b634e487b7160e01b600052604160045260246000fd5b634e487b7160e01b600052603260045260246000fd5b600181811c9082168061200057607f821691505b6020821081141561202157634e487b7160e01b600052602260045260246000fd5b50919050565b634e487b7160e01b600052601160045260246000fd5b6000821982111561205057612050612027565b500190565b600060001982141561206957612069612027565b5060010190565b60008282101561208257612082612027565b500390565b634e487b7160e01b600052603160045260246000fd5b6020808252601f908201527f5265656e7472616e637947756172643a207265656e7472616e742063616c6c00604082015260600190565b60208082526021908201527f4a6f62206d7573742062652061637469766520746f20656e6420746865206a6f6040820152603160f91b606082015260800190565b81835281816020850137506000828201602090810191909152601f909101601f19169091010190565b88815260a06020820152600061215860a08301898b612115565b828103604084015261216b81888a612115565b90508281036060840152612180818688612115565b91505060018060a01b03831660808301529998505050505050505050565b87815260a0602082015260006121b860a08301888a612115565b82810360408401526121cb818789612115565b6001600160a01b039590951660608401525050608001529594505050505056fea26469706673582212207210b1247cce715990fb3a31bb42f5cd217d3bcf611845274f45d1dda707d07864736f6c63430008090033",
  "linkReferences": {},
  "deployedLinkReferences": {}
}