{
  "_format": "hh-sol-artifact-1",
  "contractName": "VaYam",
  "sourceName": "contracts/VaYam.sol",
  "abi": [
    {
      "inputs": [],
      "stateMutability": "nonpayable",
      "type": "constructor"
    },
    {
      "anonymous": false,
      "inputs": [
        {
          "indexed": true,
          "internalType": "uint256",
          "name": "accountId",
          "type": "uint256"
        },
        {
          "indexed": false,
          "internalType": "bytes32",
          "name": "hash",
          "type": "bytes32"
        },
        {
          "indexed": false,
          "internalType": "string",
          "name": "title",
          "type": "string"
        },
        {
          "indexed": false,
          "internalType": "string",
          "name": "description",
          "type": "string"
        },
        {
          "indexed": false,
          "internalType": "string",
          "name": "imageUrl",
          "type": "string"
        },
        {
          "indexed": false,
          "internalType": "address",
          "name": "acc_owner",
          "type": "address"
        }
      ],
      "name": "AccountCreated",
      "type": "event"
    },
    {
      "anonymous": false,
      "inputs": [
        {
          "indexed": true,
          "internalType": "bytes32",
          "name": "jobId",
          "type": "bytes32"
        },
        {
          "indexed": false,
          "internalType": "bytes32",
          "name": "accountHash",
          "type": "bytes32"
        },
        {
          "indexed": false,
          "internalType": "string",
          "name": "title",
          "type": "string"
        },
        {
          "indexed": false,
          "internalType": "string",
          "name": "description",
          "type": "string"
        },
        {
          "indexed": false,
          "internalType": "address",
          "name": "acc_owner",
          "type": "address"
        },
        {
          "indexed": false,
          "internalType": "uint256",
          "name": "pricePerWeek",
          "type": "uint256"
        }
      ],
      "name": "JobCreated",
      "type": "event"
    },
    {
      "inputs": [
        {
          "internalType": "uint256",
          "name": "",
          "type": "uint256"
        }
      ],
      "name": "accountHashes",
      "outputs": [
        {
          "internalType": "bytes32",
          "name": "",
          "type": "bytes32"
        }
      ],
      "stateMutability": "view",
      "type": "function"
    },
    {
      "inputs": [
        {
          "internalType": "bytes32",
          "name": "accountHash",
          "type": "bytes32"
        },
        {
          "internalType": "bytes32",
          "name": "jobHash",
          "type": "bytes32"
        }
      ],
      "name": "activateJob",
      "outputs": [],
      "stateMutability": "nonpayable",
      "type": "function"
    },
    {
      "inputs": [
        {
          "internalType": "string",
          "name": "title",
          "type": "string"
        },
        {
          "internalType": "string",
          "name": "description",
          "type": "string"
        },
        {
          "internalType": "string",
          "name": "imageUrl",
          "type": "string"
        }
      ],
      "name": "createAccount",
      "outputs": [],
      "stateMutability": "payable",
      "type": "function"
    },
    {
      "inputs": [
        {
          "internalType": "bytes32",
          "name": "accountHash",
          "type": "bytes32"
        },
        {
          "internalType": "string",
          "name": "title",
          "type": "string"
        },
        {
          "internalType": "string",
          "name": "description",
          "type": "string"
        },
        {
          "internalType": "uint256",
          "name": "pricePerWeek",
          "type": "uint256"
        }
      ],
      "name": "createJob",
      "outputs": [],
      "stateMutability": "payable",
      "type": "function"
    },
    {
      "inputs": [
        {
          "internalType": "bytes32",
          "name": "hash",
          "type": "bytes32"
        }
      ],
      "name": "deleteAccount",
      "outputs": [],
      "stateMutability": "nonpayable",
      "type": "function"
    },
    {
      "inputs": [
        {
          "internalType": "bytes32",
          "name": "accountHash",
          "type": "bytes32"
        },
        {
          "internalType": "bytes32",
          "name": "jobHash",
          "type": "bytes32"
        }
      ],
      "name": "deleteJob",
      "outputs": [],
      "stateMutability": "nonpayable",
      "type": "function"
    },
    {
      "inputs": [
        {
          "internalType": "bytes32",
          "name": "jobHash",
          "type": "bytes32"
        }
      ],
      "name": "endJob",
      "outputs": [],
      "stateMutability": "payable",
      "type": "function"
    },
    {
      "inputs": [
        {
          "internalType": "bytes32",
          "name": "accountHash",
          "type": "bytes32"
        }
      ],
      "name": "fetchAllActiveJobsPerAccount",
      "outputs": [
        {
          "components": [
            {
              "internalType": "bytes32",
              "name": "jobHash",
              "type": "bytes32"
            },
            {
              "internalType": "bytes32",
              "name": "accountHash",
              "type": "bytes32"
            },
            {
              "internalType": "string",
              "name": "title",
              "type": "string"
            },
            {
              "internalType": "string",
              "name": "description",
              "type": "string"
            },
            {
              "internalType": "address",
              "name": "acc_owner",
              "type": "address"
            },
            {
              "internalType": "uint256",
              "name": "pricePerWeek",
              "type": "uint256"
            },
            {
              "internalType": "bool",
              "name": "isActive",
              "type": "bool"
            },
            {
              "internalType": "bool",
              "name": "exists",
              "type": "bool"
            },
            {
              "internalType": "address[]",
              "name": "clients",
              "type": "address[]"
            }
          ],
          "internalType": "struct VaYam.Job[]",
          "name": "",
          "type": "tuple[]"
        }
      ],
      "stateMutability": "view",
      "type": "function"
    },
    {
      "inputs": [
        {
          "internalType": "bytes32",
          "name": "accountHash",
          "type": "bytes32"
        }
      ],
      "name": "fetchAllJobsPerAccount",
      "outputs": [
        {
          "components": [
            {
              "internalType": "bytes32",
              "name": "jobHash",
              "type": "bytes32"
            },
            {
              "internalType": "bytes32",
              "name": "accountHash",
              "type": "bytes32"
            },
            {
              "internalType": "string",
              "name": "title",
              "type": "string"
            },
            {
              "internalType": "string",
              "name": "description",
              "type": "string"
            },
            {
              "internalType": "address",
              "name": "acc_owner",
              "type": "address"
            },
            {
              "internalType": "uint256",
              "name": "pricePerWeek",
              "type": "uint256"
            },
            {
              "internalType": "bool",
              "name": "isActive",
              "type": "bool"
            },
            {
              "internalType": "bool",
              "name": "exists",
              "type": "bool"
            },
            {
              "internalType": "address[]",
              "name": "clients",
              "type": "address[]"
            }
          ],
          "internalType": "struct VaYam.Job[]",
          "name": "",
          "type": "tuple[]"
        }
      ],
      "stateMutability": "view",
      "type": "function"
    },
    {
      "inputs": [],
      "name": "getAccountCount",
      "outputs": [
        {
          "internalType": "uint256",
          "name": "",
          "type": "uint256"
        }
      ],
      "stateMutability": "view",
      "type": "function"
    },
    {
      "inputs": [],
      "name": "getAllAccountHashes",
      "outputs": [
        {
          "internalType": "bytes32[]",
          "name": "",
          "type": "bytes32[]"
        }
      ],
      "stateMutability": "view",
      "type": "function"
    },
    {
      "inputs": [
        {
          "internalType": "bytes32",
          "name": "jobHash",
          "type": "bytes32"
        }
      ],
      "name": "hire",
      "outputs": [],
      "stateMutability": "payable",
      "type": "function"
    },
    {
      "inputs": [
        {
          "internalType": "uint256",
          "name": "",
          "type": "uint256"
        }
      ],
      "name": "jobtHashes",
      "outputs": [
        {
          "internalType": "bytes32",
          "name": "",
          "type": "bytes32"
        }
      ],
      "stateMutability": "view",
      "type": "function"
    },
    {
      "inputs": [
        {
          "internalType": "bytes32",
          "name": "accountHash",
          "type": "bytes32"
        },
        {
          "internalType": "bytes32",
          "name": "jobHash",
          "type": "bytes32"
        }
      ],
      "name": "pauseJob",
      "outputs": [],
      "stateMutability": "nonpayable",
      "type": "function"
    }
  ],
  "bytecode": "0x60806040526608e1bc9bf0400060035565e35fa931a00060045534801561002557600080fd5b506001600055600280546001600160a01b0319163317905561223c8061004c6000396000f3fe6080604052600436106100dd5760003560e01c8063a98e4e771161007f578063ca69734011610059578063ca69734014610214578063cca8faea14610234578063e555a09a14610254578063f6b634a11461027457600080fd5b8063a98e4e77146101c2578063b6dea79f146101e1578063bc53c0c41461020157600080fd5b80636ff64efd116100bb5780636ff64efd1461015a578063907c7ac41461017a578063941d4a2c1461018d578063989ac656146101a057600080fd5b806316379f81146100e257806331775a0f14610118578063388d3e021461013a575b600080fd5b3480156100ee57600080fd5b506101026100fd366004611c6f565b610287565b60405161010f9190611d19565b60405180910390f35b34801561012457600080fd5b50610138610133366004611e10565b610646565b005b34801561014657600080fd5b50610138610155366004611e10565b6106de565b34801561016657600080fd5b50610138610175366004611e10565b6108d8565b610138610188366004611c6f565b61096b565b61013861019b366004611c6f565b610b52565b3480156101ac57600080fd5b506101b5610d31565b60405161010f9190611e32565b3480156101ce57600080fd5b506007545b60405190815260200161010f565b3480156101ed57600080fd5b506101d36101fc366004611c6f565b610d89565b61013861020f366004611ebf565b610daa565b34801561022057600080fd5b5061010261022f366004611c6f565b611181565b34801561024057600080fd5b506101d361024f366004611c6f565b6115e3565b34801561026057600080fd5b5061013861026f366004611c6f565b6115f3565b610138610282366004611f59565b6116f9565b600081815260056020819052604090912001546060906001600160a01b03163381146103065760405162461bcd60e51b8152602060048201526024808201527f4f6e6c79206163636f756e74206f776e65722063616e207669657720616c6c206044820152636a6f627360e01b60648201526084015b60405180910390fd5b60008381526005602052604081206008015490808267ffffffffffffffff81111561033357610333611fdb565b60405190808252806020026020018201604052801561036c57816020015b610359611aa4565b8152602001906001900390816103515790505b50905060005b8381101561063c57600087815260056020526040812060080180546006929190849081106103a2576103a2611ff1565b9060005260206000200154815260200190815260200160002060060160019054906101000a900460ff161561062a57600087815260056020526040812060080180546006918391859081106103f9576103f9611ff1565b9060005260206000200154815260200190815260200160002090508060405180610120016040529081600082015481526020016001820154815260200160028201805461044590612007565b80601f016020809104026020016040519081016040528092919081815260200182805461047190612007565b80156104be5780601f10610493576101008083540402835291602001916104be565b820191906000526020600020905b8154815290600101906020018083116104a157829003601f168201915b505050505081526020016003820180546104d790612007565b80601f016020809104026020016040519081016040528092919081815260200182805461050390612007565b80156105505780601f1061052557610100808354040283529160200191610550565b820191906000526020600020905b81548152906001019060200180831161053357829003601f168201915b505050918352505060048201546001600160a01b03166020808301919091526005830154604080840191909152600684015460ff80821615156060860152610100909104161515608084015260078401805482518185028101850190935280835260a09094019391929091908301828280156105f557602002820191906000526020600020905b81546001600160a01b031681526001909101906020018083116105d7575b50505050508152505083858151811061061057610610611ff1565b6020908102919091010152610626600185612058565b9350505b8061063481612070565b915050610372565b5095945050505050565b600082815260056020819052604090912001546001600160a01b03163381146106bd5760405162461bcd60e51b8152602060048201526024808201527f4f6e6c79206163636f756e74206f776e65722063616e206163746976617465206044820152636a6f627360e01b60648201526084016102fd565b50600090815260066020819052604090912001805460ff1916600117905550565b600082815260056020819052604090912001546001600160a01b03163381146107545760405162461bcd60e51b815260206004820152602260248201527f4f6e6c79206163636f756e74206f776e65722063616e2064656c657465206a6f604482015261627360f01b60648201526084016102fd565b6000828152600660205260408120818155600181018290559061077a6002830182611aef565b610788600383016000611aef565b6004820180546001600160a01b031916905560006005830181905560068301805461ffff191690556107be906007840190611b29565b5050600083815260056020526040812060080154905b818110156108d157600085815260056020526040902060080180548591908390811061080257610802611ff1565b906000526020600020015414156108bf57600085815260056020526040902060080161082f60018461208b565b8154811061083f5761083f611ff1565b906000526020600020015460056000878152602001908152602001600020600801828154811061087157610871611ff1565b9060005260206000200181905550600560008681526020019081526020016000206008018054806108a4576108a46120a2565b600190038181906000526020600020016000905590556108d1565b806108c981612070565b9150506107d4565b5050505050565b600082815260056020819052604090912001546001600160a01b031633811461094d5760405162461bcd60e51b815260206004820152602160248201527f4f6e6c79206163636f756e74206f776e65722063616e207061757365206a6f626044820152607360f81b60648201526084016102fd565b50600090815260066020819052604090912001805460ff1916905550565b6002600054141561098e5760405162461bcd60e51b81526004016102fd906120b8565b60026000908155818152600660208190526040909120015460ff166109f55760405162461bcd60e51b815260206004820152601a60248201527f4a6f62206d7573742062652061637469766520746f206869726500000000000060448201526064016102fd565b6004543414610a505760405162461bcd60e51b815260206004820152602160248201527f5072696365206d75737420626520657175616c20746f20686972696e672066656044820152606560f81b60648201526084016102fd565b600081815260066020526040812060070154905b81811015610b17576000838152600660205260409020600701805433919083908110610a9257610a92611ff1565b6000918252602090912001546001600160a01b03161415610b055760405162461bcd60e51b815260206004820152602760248201527f436c69656e74206d6179206f6e6c792068697265206f6e652074696d65207065604482015266391030903537b160c91b60648201526084016102fd565b80610b0f81612070565b915050610a64565b50506000908152600660209081526040822060070180546001818101835591845291832090910180546001600160a01b031916331790559055565b60026000541415610b755760405162461bcd60e51b81526004016102fd906120b8565b60026000908155818152600660208190526040909120015460ff16610bac5760405162461bcd60e51b81526004016102fd906120ef565b6000818152600660208190526040909120015460ff16610bde5760405162461bcd60e51b81526004016102fd906120ef565b600081815260066020526040812060070154905b81811015610d27576000838152600660205260409020600701805433919083908110610c2057610c20611ff1565b6000918252602090912001546001600160a01b03161415610d15576000838152600660205260409020600701610c5760018461208b565b81548110610c6757610c67611ff1565b60009182526020808320909101548583526006909152604090912060070180546001600160a01b039092169183908110610ca357610ca3611ff1565b600091825260208083209190910180546001600160a01b0319166001600160a01b039490941693909317909255848152600690915260409020600701805480610cee57610cee6120a2565b600082815260209020810160001990810180546001600160a01b0319169055019055610d27565b80610d1f81612070565b915050610bf2565b5050600160005550565b60606007805480602002602001604051908101604052809291908181526020018280548015610d7f57602002820191906000526020600020905b815481526020019060010190808311610d6b575b5050505050905090565b60078181548110610d9957600080fd5b600091825260209091200154905081565b60026000541415610dcd5760405162461bcd60e51b81526004016102fd906120b8565b60026000556003543414610e365760405162461bcd60e51b815260206004820152602a60248201527f5072696365206d75737420657175616c20746f206163636f756e74206372656160448201526974696f6e20707269636560b01b60648201526084016102fd565b610e44600180546001019055565b6000610e4f60015490565b6040516bffffffffffffffffffffffff193360601b166020820152436034820152909150600090605401604051602081830303815290604052805190602001209050610ead8160009081526005602052604090206007015460ff1690565b15610f145760405162461bcd60e51b815260206004820152603160248201527f4163636f756e74206d757374206e6f7420616c726561647920657869737420696044820152706e207468652073616d6520626c6f636b2160781b60648201526084016102fd565b60405180610120016040528083815260200182815260200189898080601f016020809104026020016040519081016040528093929190818152602001838380828437600092019190915250505090825250604080516020601f8a0181900481028201810190925288815291810191908990899081908401838280828437600092019190915250505090825250604080516020601f8801819004810282018101909252868152918101919087908790819084018382808284376000920182905250938552505033602084015250604082018190526001606083015260809091019060405190808252806020026020018201604052801561101d578160200160208202803683370190505b509052600082815260056020908152604091829020835181558382015160018201559183015180516110559260028501920190611b47565b5060608201518051611071916003840191602090910190611b47565b506080820151805161108d916004840191602090910190611b47565b5060a08201516005820180546001600160a01b0319166001600160a01b0390921691909117905560c0820151600682015560e082015160078201805460ff191691151591909117905561010082015180516110f2916008840191602090910190611bcb565b5050600780546001810182556000919091527fa66cc928b5edb82af9bd49922954155ab7b0942694bea4ce44661d9a8736c688018290555060405182907f64b1666b6402db16412fa77279ea33e80edc5f9618c34c662b3966a605cdf9919061116a9084908c908c908c908c908c908c903390612159565b60405180910390a250506001600055505050505050565b600081815260056020526040812060080154606091908190815b8181101561126c57600086815260056020526040812060080180546006929190849081106111cb576111cb611ff1565b9060005260206000200154815260200190815260200160002060060160019054906101000a900460ff16801561124757506000868152600560205260408120600801805460069291908490811061122457611224611ff1565b6000918252602080832090910154835282019290925260400190206006015460ff165b1561125a57611257600185612058565b93505b8061126481612070565b91505061119b565b5060008367ffffffffffffffff81111561128857611288611fdb565b6040519080825280602002602001820160405280156112c157816020015b6112ae611aa4565b8152602001906001900390816112a65790505b50905060005b8481101561063c57600087815260056020526040812060080180546006929190849081106112f7576112f7611ff1565b9060005260206000200154815260200190815260200160002060060160019054906101000a900460ff16801561137357506000878152600560205260408120600801805460069291908490811061135057611350611ff1565b6000918252602080832090910154835282019290925260400190206006015460ff165b156115d157600087815260056020526040812060080180546006918391859081106113a0576113a0611ff1565b906000526020600020015481526020019081526020016000209050806040518061012001604052908160008201548152602001600182015481526020016002820180546113ec90612007565b80601f016020809104026020016040519081016040528092919081815260200182805461141890612007565b80156114655780601f1061143a57610100808354040283529160200191611465565b820191906000526020600020905b81548152906001019060200180831161144857829003601f168201915b5050505050815260200160038201805461147e90612007565b80601f01602080910402602001604051908101604052809291908181526020018280546114aa90612007565b80156114f75780601f106114cc576101008083540402835291602001916114f7565b820191906000526020600020905b8154815290600101906020018083116114da57829003601f168201915b505050918352505060048201546001600160a01b03166020808301919091526005830154604080840191909152600684015460ff80821615156060860152610100909104161515608084015260078401805482518185028101850190935280835260a090940193919290919083018282801561159c57602002820191906000526020600020905b81546001600160a01b0316815260019091019060200180831161157e575b5050505050815250508386815181106115b7576115b7611ff1565b60209081029190910101526115cd600186612058565b9450505b806115db81612070565b9150506112c7565b60088181548110610d9957600080fd5b600081815260056020819052604090912001546001600160a01b031633146116745760405162461bcd60e51b815260206004820152602e60248201527f4f6e6c7920746865206163636f756e74206f776e65722063616e2064656c657460448201526d32903a34329030b1b1b7bab73a1760911b60648201526084016102fd565b6000818152600560205260408120818155600181018290559061169a6002830182611aef565b6116a8600383016000611aef565b6116b6600483016000611aef565b6005820180546001600160a01b031916905560006006830181905560078301805460ff191690556116eb906008840190611b29565b50506116f6816119d1565b50565b6002600054141561171c5760405162461bcd60e51b81526004016102fd906120b8565b6002600090815586815260056020819052604090912001546001600160a01b031633811461179b5760405162461bcd60e51b815260206004820152602660248201527f4f6e6c79206163636f756e74206f776e65722063616e20637265617465206e6560448201526577206a6f627360d01b60648201526084016102fd565b6040516bffffffffffffffffffffffff193360601b16602082015243603482015260009060540160405160208183030381529060405280519060200120905060405180610120016040528082815260200189815260200188888080601f016020809104026020016040519081016040528093929190818152602001838380828437600092019190915250505090825250604080516020601f89018190048102820181019092528781529181019190889088908190840183828082843760009201829052509385525050506001600160a01b038516602080840191909152604080840188905260016060850181905260808501528051838152918201905260a09092019190509052600082815260066020908152604091829020835181558382015160018201559183015180516118d79260028501920190611b47565b50606082015180516118f3916003840191602090910190611b47565b5060808201516004820180546001600160a01b0319166001600160a01b0390921691909117905560a0820151600582015560c082015160068201805460e085015161ffff1990911692151561ff001916929092176101009215158302179055820151805161196b916007840191602090910190611c05565b5050506000888152600560209081526040808320600801805460018101825590845291909220018290555181907fdea473562a98d3d925b70d0beb31a2b67d09a52fb5b9b8fbb6350d4ac87f03f99061116a908b908b908b908b908b908a908c906121b9565b60075460005b81811015611a9f578260056000600784815481106119f7576119f7611ff1565b90600052602060002001548152602001908152602001600020600101541415611a8d576007611a2760018461208b565b81548110611a3757611a37611ff1565b906000526020600020015460078281548110611a5557611a55611ff1565b6000918252602090912001556007805480611a7257611a726120a2565b60019003818190600052602060002001600090559055505050565b80611a9781612070565b9150506119d7565b505050565b604080516101208101825260008082526020820181905260609282018390528282018390526080820181905260a0820181905260c0820181905260e082015261010081019190915290565b508054611afb90612007565b6000825580601f10611b0b575050565b601f0160209004906000526020600020908101906116f69190611c5a565b50805460008255906000526020600020908101906116f69190611c5a565b828054611b5390612007565b90600052602060002090601f016020900481019282611b755760008555611bbb565b82601f10611b8e57805160ff1916838001178555611bbb565b82800160010185558215611bbb579182015b82811115611bbb578251825591602001919060010190611ba0565b50611bc7929150611c5a565b5090565b828054828255906000526020600020908101928215611bbb5791602002820182811115611bbb578251825591602001919060010190611ba0565b828054828255906000526020600020908101928215611bbb579160200282015b82811115611bbb57825182546001600160a01b0319166001600160a01b03909116178255602090920191600190910190611c25565b5b80821115611bc75760008155600101611c5b565b600060208284031215611c8157600080fd5b5035919050565b6000815180845260005b81811015611cae57602081850181015186830182015201611c92565b81811115611cc0576000602083870101525b50601f01601f19169290920160200192915050565b600081518084526020808501945080840160005b83811015611d0e5781516001600160a01b031687529582019590820190600101611ce9565b509495945050505050565b60006020808301818452808551808352604092508286019150828160051b87010184880160005b83811015611e0257603f198984030185528151610120815185528882015189860152878201518189870152611d7782870182611c88565b91505060608083015186830382880152611d918382611c88565b92505050608080830151611daf828801826001600160a01b03169052565b505060a0828101519086015260c08083015115159086015260e0808301511515908601526101009182015185820392860192909252611dee8183611cd5565b968901969450505090860190600101611d40565b509098975050505050505050565b60008060408385031215611e2357600080fd5b50508035926020909101359150565b6020808252825182820181905260009190848201906040850190845b81811015611e6a57835183529284019291840191600101611e4e565b50909695505050505050565b60008083601f840112611e8857600080fd5b50813567ffffffffffffffff811115611ea057600080fd5b602083019150836020828501011115611eb857600080fd5b9250929050565b60008060008060008060608789031215611ed857600080fd5b863567ffffffffffffffff80821115611ef057600080fd5b611efc8a838b01611e76565b90985096506020890135915080821115611f1557600080fd5b611f218a838b01611e76565b90965094506040890135915080821115611f3a57600080fd5b50611f4789828a01611e76565b979a9699509497509295939492505050565b60008060008060008060808789031215611f7257600080fd5b86359550602087013567ffffffffffffffff80821115611f9157600080fd5b611f9d8a838b01611e76565b90975095506040890135915080821115611fb657600080fd5b50611fc389828a01611e76565b979a9699509497949695606090950135949350505050565b634e487b7160e01b600052604160045260246000fd5b634e487b7160e01b600052603260045260246000fd5b600181811c9082168061201b57607f821691505b6020821081141561203c57634e487b7160e01b600052602260045260246000fd5b50919050565b634e487b7160e01b600052601160045260246000fd5b6000821982111561206b5761206b612042565b500190565b600060001982141561208457612084612042565b5060010190565b60008282101561209d5761209d612042565b500390565b634e487b7160e01b600052603160045260246000fd5b6020808252601f908201527f5265656e7472616e637947756172643a207265656e7472616e742063616c6c00604082015260600190565b60208082526021908201527f4a6f62206d7573742062652061637469766520746f20656e6420746865206a6f6040820152603160f91b606082015260800190565b81835281816020850137506000828201602090810191909152601f909101601f19169091010190565b88815260a06020820152600061217360a08301898b612130565b828103604084015261218681888a612130565b9050828103606084015261219b818688612130565b91505060018060a01b03831660808301529998505050505050505050565b87815260a0602082015260006121d360a08301888a612130565b82810360408401526121e6818789612130565b6001600160a01b039590951660608401525050608001529594505050505056fea2646970667358221220876247c90674f54d521054f99b94f33ac677d2974ad4854edb451b3d7e45b19564736f6c63430008090033",
  "linkReferences": {},
  "deployedLinkReferences": {}
}